:020000040800F2
:1000000068040020010A0008D9010008DB0100088B
:10001000DF010008E3010008E7010008000000001C
:10002000000000000000000000000000EB010008DC
:10003000ED01000800000000EF010008F1010008D8
:100040001B0A00081B0A00081B0A00081B0A0008FC
:100050001B0A00081B0A00081B0A00081B0A0008EC
:100060001B0A00081B0A00081B0A00081B0A0008DC
:100070001B0A00081B0A00081B0A00081B0A0008CC
:100080001B0A00081B0A00081B0A00081B0A0008BC
:100090001B0A00081B0A00081B0A0008F3010008DD
:1000A0001B0A00081B0A00081B0A00081B0A00089C
:1000B0001B0A00081B0A00081B0A00081B0A00088C
:1000C0001B0A00081B0A00081B0A00081B0A00087C
:1000D0001B0A0008F50100081B0A00081B0A00089B
:1000E0001B0A00081B0A00081B0A0008DFF80CD0D6
:1000F00001F05EFD00480047590100086804002037
:1001000010B500F097FF012001F019F800BF212081
:1001100000F0D3FF0028FAD0002001F030F84FF4AF
:10012000806001F035F8002001F03BF8002108461E
:1001300001F008F8012001F011F800BF392000F0AB
:10014000BCFF0028FAD0022001F00BF800BF01F03C
:1001500011F80828FBD110BDFFF7D2FF00F0ACF872
:1001600000F024F900F066F900F00CFA00F0FBFB57
:1001700000F01BFA0CA001F04DFD13E014480078CC
:1001800001280ED1002012490870124801F0C0FC6D
:10019000022800D806E000BF0E4800F081FB401C9A
:1001A000FAD000BFEAE700000D0A2A2A57454C435F
:1001B0004F4D20544F20454E54455220494E544FE8
:1001C0002042555359424F582A2A2A2A0D0A000024
:1001D0000000002048000020704700BFFEE700BF7D
:1001E000FEE700BFFEE700BFFEE7704770477047BD
:1001F0007047704710B540F22551294801F032FC94
:1002000000284BD040F22551254801F055FC2448E8
:1002100001F0A8FB23490870084600780A2809D095
:100220000D2802D07F2828D118E01F490A2001F0AC
:1002300040FF00BF1C490D2001F03BFF1A4923205D
:1002400001F037FF00211948194A12688154012032
:10025000184908700020164908601EE0144800681C
:10026000002809DD10490F48007801F022FF1048EE
:100270000068401E0E4908600FE00B4909480078ED
:1002800001F017FF07480178094802680068401C20
:10029000074B18600548815400BF00BF10BD000027
:1002A00000380140080000204400002048000020E1
:1002B000040000200000002000B587B0012144F2B6
:1002C000050001F021F84FF40070ADF81800182077
:1002D0008DF81B0003208DF81A0006A9274800F0AE
:1002E0005DFD4FF48060ADF8180004208DF81B0010
:1002F00006A9224800F052FD4FF4E13002900020A0
:10030000ADF80C00ADF80E00ADF81000ADF814001B
:100310000C20ADF8120002A9194801F026FA0122BA
:1003200040F22551164801F0B8FA0121144801F0B5
:10033000A8FA4FF4C06000F063FC25208DF804009B
:1003400001208DF8050005208DF8060001208DF8AC
:10035000070001A800F059FC07B000BD70B50446C5
:100360000D46E1B2064801F0F9FA00BF04480088E2
:1003700010F0800FFAD0204670BD00000008014048
:100380000038014000EBC0014FF0E0225161012133
:10039000116100BF4FF0E021096911F4803FF9D0ED
:1003A00000214FF0E02211617047000008B50121E3
:1003B000082000F0A9FF0420ADF8000010208DF8FF
:1003C000030002208DF802006946174800F0E6FCA1
:1003D00008BD10B594B004466946204600F090F878
:1003E0000199081911A101F09AFB80B904210E4866
:1003F00000F07FFD42F21070FFF7C4FF4FF47A70F7
:10040000FFF7C0FF0421084800F075FD09E00199DD
:10041000081907A101F083FB18B90421024800F074
:100420006AFD002014B010BD000C01406F6E00008A
:100430006F66660008B50121092000F065FF012103
:10044000174800F07AFD0820ADF8000010208DF864
:10045000030003208DF802006946124800F09EFC5C
:1004600008BD10B594B004466946204600F048F82F
:10047000019908190CA101F052FB20B90821094883
:1004800000F037FD09E00199081908A101F047FBC8
:1004900018B90821034800F02EFD002014B010BD4B
:1004A00000023000000C01406F6E00006F666600B5
:1004B00030B505460C46285D10B94FF0FF3030BD11
:1004C000285D202801D12046F9E7601C044601463A
:1004D0002846FFF7EDFFF2E730B505460C46285DEC
:1004E00010B94FF0FF3030BD285D202801D02046E4
:1004F000F9E7601C044601462846FFF7EDFFF2E7E6
:100500002DE9F04705460E464FF00008C14600248D
:10051000002700BF41462846FFF7DEFF041E08DB28
:100520007F1C484609F1010946F8204004F1010802
:1005300000E00BE041462846FFF7BAFF041E04DB4B
:100540000020285504F10108E4E700BF00BF384649
:10055000BDE8F0872DE9F04105460C46002128460C
:10056000FFF7BAFF064631462846FFF7A1FF0746C8
:10057000BA1B2946204601F0B9FA0020E055BDE833
:10058000F081000008B50121042000F0BDFE0E201E
:10059000ADF8000010208DF8030003208DF8020054
:1005A0006946054800F0FAFB08BD10B50E21024867
:1005B00000F09FFC10BD00000008014000B587B0AE
:1005C00001210C2000F0A0FE012141F2010000F009
:1005D0009BFE2020ADF8040003208DF806001820B3
:1005E0008DF8070001A9E34800F0D8FB04208DF83E
:1005F00007004020ADF8040001A9DE4800F0CEFB62
:1006000018208DF807008020ADF8040001A9D94812
:1006100000F0C4FB1020ADF804008DF8070001A91C
:10062000D44800F0BBFB0120ADF8040010208DF889
:10063000070001A9D04800F0B1FB0120ADF804008B
:1006400048208DF8070001A9CA4800F0A7FB002048
:10065000ADF808004FF48270ADF80A000020ADF844
:100660000C00ADF80E00ADF810004FF40070ADF8BE
:1006700012000820ADF814000020ADF81600072085
:10068000ADF8180002A9BD4800F0CCFE0121BB481E
:1006900000F06DFF07B000BD70B5044600BF022139
:1006A000B64800F0E8FF0028F9D02146B34800F032
:1006B0008FFF00BF0121B14800F0DDFF0028F9D015
:1006C000AE4800F087FFC5B2284670BD70B505463C
:1006D0000C460121A84800F00EFC1021A54800F0AE
:1006E0000AFC2846FFF7D8FF06462046FFF7D4FF4E
:1006F0001021A04800F0FDFB01219F4800F0F9FB0C
:10070000304670BD70B5044601219B4800F0F3FBF4
:100710001021984800F0EFFB2046FFF7BDFFFF20B7
:10072000FFF7BAFF05461021924800F0E2FB0121D5
:10073000914800F0DEFB284670BD2DE9F0410746E8
:100740000D46164601218C4800F0D5FB1021894842
:1007500000F0D1FB3846FFF79FFF8046002404E0FD
:10076000285DFFF799FF601CC4B2B442F8DB10218A
:10077000804800F0BEFB01217F4800F0BAFB4046F4
:10078000BDE8F0812DE9F04107460D4616460121EE
:10079000794800F0B0FB1021764800F0ACFB3846F9
:1007A000FFF77AFF8046002405E0FF20FFF774FF83
:1007B0002855601CC4B2B442F7DB10216D4800F02C
:1007C00098FB01216C4800F094FB4046BDE8F081A5
:1007D00010B50121684800F08EFB0D212020FFF7A5
:1007E00075FF0121644800F084FB42F21070FFF7AE
:1007F000C9FD10BD10B5FFF7EBFF01215E4800F009
:100800007AFB05225E493020FFF797FF05225C49FD
:100810002A20FFF792FF01212120FFF757FF012136
:100820002220FFF753FFFF212420FFF74FFF002175
:100830002520FFF74BFF07212620FFF747FF0E215A
:100840002020FFF743FF01214B4800F052FB10BD71
:1008500010B504460121484800F04DFB10214548E1
:1008600000F049FB012C03D1E120FFF715FF02E066
:10087000E220FFF711FF10213E4800F03AFB012172
:100880003D4800F036FB10BD10B50020FFF7E0FF3B
:100890000120FFF7DDFFFF212720FFF717FF10BD25
:1008A00070B504460025374801680068401C354B88
:1008B000186035A001F0AEF9204601F029F905468F
:1008C000202809DA2146344801F037F92A4632490E
:1008D00032A001F09FF903E0294636A001F09AF911
:1008E000FF212720FFF7F2FE20222B49A020FFF74F
:1008F00024FF064600BF01211E4800F0E0FA002850
:10090000F9D101211C4800F0F6FA0720FFF7FAFEA2
:1009100006462E2805D1314631A001F07BF9002092
:1009200070BD42F21070FFF72DFDFFF7ADFF1548C7
:100930000068142804DD002012490860401EEFE71B
:100940002046FFF7ADFF00BFEAE710B594B00446BC
:1009500069462046FFF7D4FD01990819FFF7A0FF6B
:10096000002014B010BD10B5FFF728FEFFF742FFBE
:1009700010BD000000080140000C014000300140A3
:100980000C000020140000200D0A636F756E743D8A
:1009900025640D0A000000001900002053656E64F4
:1009A0003A2573287374725F6C656E3D2564290D5A
:1009B0000A0000004572726F723A20496E707574B9
:1009C00020737472696E6720697320746F6F206C76
:1009D0006F6E6721286C656E203D2564290D0A0025
:1009E0006E72662073656E642066696E697368282E
:1009F0007374617475733D25303278290D0A0000D7
:100A00000648804706480047FEE7FEE7FEE7FEE7A8
:100A1000FEE7FEE7FEE7FEE7FEE7FEE7010B000864
:100A2000ED0000080CB50020019000906B480068B4
:100A300040F480306949086000BF6848006800F4ED
:100A4000003000900198401C0190009818B901985E
:100A5000B0F5A06FF1D16148006810F4003F02D0FA
:100A60000120009001E0002000900098012842D170
:100A70005B48006840F0100059490860084600686B
:100A800020F0030008600846006840F0020008609B
:100A900052484068514948600846406848600846E6
:100AA000406840F4806048600846406820F47C104C
:100AB00048600846406840F4E8104860084600680E
:100AC00040F08070086000BF4448006810F0007F6C
:100AD000FAD04248406820F0030040494860084688
:100AE000406840F00200486000BF3C48406800F0A9
:100AF0000C000828F9D10CBD10B5FFF793FF10BD0D
:100B000010B53648006840F00100344908600846D6
:100B10004068344908403149486008460068324915
:100B200008402E4908600846006820F480200860CC
:100B30000846406820F4FE0048604FF41F008860BB
:100B4000FFF7DAFF4FF000602849086010BD10B5CC
:100B5000002100200022214B5B6803F00C0121B131
:100B6000042906D0082928D107E0214B214C236015
:100B700027E01F4B1F4C236023E0184B5B6803F4F6
:100B80007010164B5B6803F48032022303EB904035
:100B900022B9194B4343174C23600DE00F4B5B68A0
:100BA00013F4003F04D0144B4343124C236003E082
:100BB0000F4B43430F4C236003E00D4B0D4C236060
:100BC00000BF00BF054B5B68C3F303130B4CE15C34
:100BD000084B1B68CB40074C236010BD001002403F
:100BE000002002400000FFF8FFFFF6FE08ED00E0E5
:100BF00000127A001C00002000093D0020000020A7
:100C000031490143314A1160704770B5002100231A
:100C10000F22C4780CB32D4C246804F4E064C4F5AE
:100C2000E064210AC1F10403CA40447804FA03F1E4
:100C30008478144021430901254C0678A155047895
:100C400004F01F050124AC4005786D114FF0E0263B
:100C500006EB8505C5F8004109E0047804F01F059E
:100C60000124AC401B4D0678761145F8264070BD36
:100C7000194A0A400243154B1B1F1A60704739B1CD
:100C8000124A121D12680243104B1B1D1A6006E027
:100C90000E4A121D126882430C4B1B1D1A607047CE
:100CA000042808D14FF0E021096941F004014FF018
:100CB000E022116107E04FF0E021096921F0040111
:100CC0004FF0E022116170470000FA050CED00E0E2
:100CD00000E400E080E100E080FFFF1F10B5044663
:100CE000CA48844208D10121042000F027FB0021DA
:100CF000042000F023FB46E0C548844208D10121CE
:100D0000082000F01BFB0021082000F017FB3AE050
:100D1000C048844208D10121102000F00FFB0021BF
:100D2000102000F00BFB2EE0BB48844208D10121CB
:100D3000202000F003FB0021202000F0FFFA22E039
:100D4000B648844208D10121402000F0F7FA002182
:100D5000402000F0F3FA16E0B148844208D10121A6
:100D6000802000F0EBFA0021802000F0E7FA0AE092
:100D7000AC48844207D10121801500F0DFFA002140
:100D8000A01500F0DBFA10BD10B50121084600F0F7
:100D9000D5FA0021012000F0D1FA10BD2DE9F04173
:100DA000024600250026002000230024002791F899
:100DB00003C00CF00F0591F803C01CF0100F03D016
:100DC00091F802C04CEA050591F800C0BCF1000F93
:100DD00031D0146800202BE04FF0010C0CFA00F326
:100DE000B1F800C00CEA03069E4220D183004FF008
:100DF0000F0C0CFA03F7BC4305FA03FC4CEA04049D
:100E000091F803C0BCF1280F06D14FF0010C0CFA89
:100E100000FCC2F814C00AE091F803C0BCF1480F0E
:100E200005D14FF0010C0CFA00FCC2F810C0401CB8
:100E30000828D1D31460B1F800C0BCF1FF0F34DD35
:100E4000546800202EE000F1080C4FF0010808FA69
:100E50000CF3B1F800C00CEA03069E4221D18300D6
:100E60004FF00F0C0CFA03F7BC4305FA03FC4CEAF5
:100E7000040491F803C0BCF1280F05D100F1080C5F
:100E800008FA0CF8C2F8148091F803C0BCF1480FBE
:100E900007D100F1080C4FF0010808FA0CF8C2F86D
:100EA0001080401C0828CED35460BDE8F0814FF676
:100EB000FF710180022181700421C17070470246D8
:100EC000002093680B4201D0012000E00020704711
:100ED0000146886880B2704702460020D3680B4202
:100EE00001D0012000E0002070470146C86880B2B0
:100EF000704701617047416170470AB1016100E0CC
:100F000041617047C16070474FF480320A4382618B
:100F10008161826182698269704702460020424B8A
:100F200018684FF68073184040EA021008433E4BA1
:100F3000186070473D49C8617047F0B50A46002304
:100F400000240021002500F00046B6F1004F02D138
:100F5000354EF16901E0344E7168C0F3034583B248
:100F600000F44016B6F5401F08D121F070612E4EF6
:100F7000766826F070662C4F7E6012E000F48016D2
:100F8000B6F5801F06D1032606FA05F4A14341F009
:100F9000706106E0460D360103FA06F6B14341F0F2
:100FA000706122B1460D360103FA06F6314300F0B6
:100FB0000046B6F1004F02D11B4EF16101E01A4E1E
:100FC0007160F0BD30B500228B071C0F0F2303FAB0
:100FD00004F2154B08338C1053F824309343124C11
:100FE00008348D1044F8253023468C1053F82430F3
:100FF0008C07240F00FA04F423430B4C08348D10A3
:1010000044F8253030BD0A490860704700080140A7
:10101000000C014000100140001401400018014084
:10102000001C01400020014000000140000020425F
:10103000DC002042DD48006840F00100DB49086028
:1010400008464068DA490840D849486008460068C0
:10105000D8490840D54908600846006820F4802037
:1010600008600846406820F4FE0048604FF41F0006
:1010700088607047CD49096821F48031CB4A1160FE
:101080001146096821F480211160B0F5803F03D03A
:10109000B0F5802F0ED106E0C449096841F48031D3
:1010A000C24A116007E0C149096841F4A021BF4A62
:1010B000116000E000BF00BF704710B5014600227C
:1010C000002300204A11012A02D1B84C236806E00F
:1010D000022A02D1B54C236A01E0B44C636A01F0E4
:1010E0001F02012494401C4201D0012000E0002096
:1010F00010BD38B5002000900024002500BF31202D
:10110000FFF7DBFF05460098401C00900098B0F503
:10111000A06F01D0002DF2D03120FFF7CEFF08B133
:10112000012400E00024204638BD014600209F4AEB
:10113000106820F0F80040EAC100106070479E4936
:101140000860704702460020984B586820F47C10D5
:1011500042EA01031843954B586070479649086668
:10116000704701460020914A506820F00300084370
:10117000506070478D48406800F00C007047014691
:1011800000208A4A506820F0F00008435060704701
:1011900001460020854A506820F4E0600843506012
:1011A000704701460020814A506820F4605040EAB0
:1011B000C1005060704729B17C4A527A02437B4B90
:1011C0005A7204E0794A527A8243784B5A727047D5
:1011D0007A490860704701460020744A506820F43C
:1011E00040400843506070470021754A11706F4AB3
:1011F00082F82010012802D0042808D103E0012140
:101200006F4A117004E005216D4A117000E000BFC3
:1012100000BF70476B49086070476449096A014321
:10122000624A11627047674944390860704730B5B7
:1012300000210022002400235C4D6D6805F00C01A4
:1012400021B1042905D0082923D105E05E4D0560B0
:1012500022E05D4D05601FE0544D6D6805F470128D
:10126000524D6D6805F48034022505EB92421CB99D
:10127000564D554305600BE04C4D6D6815F4003F2D
:1012800003D0524D5543056002E04F4D5543056074
:1012900002E04D4D056000BF00BF444D6D6805F094
:1012A000F00109094A4D6B5C0568DD4045603F4D22
:1012B0006D6805F4E061090A454D6B5C4568DD40E9
:1012C00085603A4D6D6805F46051C90A404D6B5C0C
:1012D0004568DD40C560354D6D6805F44041890BBA
:1012E0003C4D6B5CC568B5FBF3F5056130BD29B1BC
:1012F0002E4A526902432D4B5A6104E02B4A52692F
:1013000082432A4B5A61704729B1284A92690243A5
:10131000264B9A6104E0254A92698243234B9A61E5
:10132000704729B1214AD2690243204BDA6104E0B7
:101330001E4AD26982431D4BDA61704729B11B4AAC
:10134000D2680243194BDA6004E0184AD26882433B
:10135000164BDA60704729B1144A12690243134BE5
:101360001A6104E0114A12698243104B1A617047F6
:1013700014494039086070470F49C86470470B49E9
:10138000C87170470948406A40F080700749486258
:10139000704701460020054A92680A4201D00120A8
:1013A00000E0002070470149887270470010024039
:1013B0000000FFF8FFFFF6FE00004242D800424264
:1013C000201002408004424200127A0000093D00D1
:1013D000300000204000002010B50446BE48844282
:1013E00008D101218014FFF7A9FF0021A014FFF705
:1013F000A5FF16E0B948844208D101210014FFF787
:10140000AAFF00212014FFF7A6FF0AE0B448844297
:1014100007D10121C013FFF79EFF0021E013FFF762
:101420009AFF10BD10B50022028802F441520B88C9
:101430004C8823438C882343CC8823430C89234343
:101440004C8923438C892343CC8923431A4302804C
:10145000838B4FF2FF74234083830B8A038210BD7A
:101460002DE9F04F85B005460C464FF000090227E4
:101470004FF000084FF0010B0026B246A88B4FF248
:1014800040010840A88302202884B5F81C90A06879
:10149000022801D100BF38E0A08810B94FF0010B3D
:1014A00001E04FF0020B8D48854200D100E000BF03
:1014B0006846FFF7BCFEDDF800A0E088B0F5007FCD
:1014C0000AD14FEA1A2000EB80004000A168B0FB6F
:1014D000F1F0401D86B20BE04FEA4B10BAFBF0F082
:1014E00000EB80004000A168B0FBF1F0401D86B227
:1014F0000A20B6FBF0F606F00108A6EB0800C0F3E0
:101500004F074FF6FF7000EA0828022F01DBFF2F7C
:1015100002DD02274FF00008E08840EA0800384367
:101520002884A088A189084361880843218808434A
:1015300040F4006040EA0909A5F81C9005B0BDE838
:10154000F08F0021018041808180C1800181418133
:101550008181C18107210182704700210180418082
:101560008180C1800221816000218181704721B189
:10157000028842F04002028004E002884FF6BF7306
:101580001A400280704721B1828B42F480628283CC
:1015900004E0828B4FF6FF331A408283704730B5E8
:1015A000002400230C110125A540ABB21AB1858897
:1015B0001D43858002E085889D43858030BD1AB13A
:1015C00083880B43838002E083888B43838070474A
:1015D00081817047014688897047A1F57E42FF3AB4
:1015E00004D0028842F48072028004E002884FF640
:1015F000FF631A400280704721B1828842F00402E2
:10160000828004E082884FF6FB731A408280704724
:1016100002884FF2FF731A40028002880A43028058
:101620007047018841F480510180704721B10288E0
:1016300042F40052028004E002884DF6FF731A4023
:101640000280704702460020012901D0108B00E083
:10165000908A70470146088A7047B1F5804F04D1DF
:10166000028842F48042028004E002884BF6FF7355
:101670001A40028070470246002013890B4201D0B5
:10168000012000E000207047CA4302817047F0B596
:101690000246002000240023002501F00F07012648
:1016A000BE40B4B20B1101269E40B3B2968806EA42
:1016B00003051689264202D00DB1012000E000206A
:1016C000F0BD10B5002201F00F040123A3409AB22F
:1016D000D343038110BD00000030014000380040BA
:1016E000003C004010B50446FB48844209D101216A
:1016F0008803FFF723FE00214FF48040FFF71EFE12
:1017000032E0F648844209D101214804FFF723FE64
:1017100000214FF40030FFF71EFE25E0F048844220
:1017200009D101218804FFF716FE00214FF4802023
:10173000FFF711FE18E0EB48844209D10121C804EB
:10174000FFF709FE00214FF40020FFF704FE0BE035
:10175000E548844208D101210805FFF7FCFD00217E
:101760004FF48010FFF7F7FD10BD2DE9F04786B06C
:1017700005460E460024A24600BFA1460027B089B8
:1017800000B100BF2F462C8A4CF6FF700440F08851
:1017900004432C82AC894EF6F3100440B0883189A2
:1017A0000843718908430443AC81AC8A4FF6FF407B
:1017B0000440B0890443AC8201A8FFF738FDC64855
:1017C000874202D1DDF810A001E0DDF80CA0A88965
:1017D00010F4004F08D00AEBCA0000EB0A10316881
:1017E0004900B0FBF1F807E00AEBCA0000EB0A1071
:1017F00031688900B0FBF1F86420B8FBF0F0040117
:101800002009642101FB1089A88910F4004F08D039
:10181000322000EBC900B0FBF1F000F007000443F8
:1018200008E0322000EB09106421B0FBF1F000F079
:101830000F0004432C8106B0BDE8F0874FF4165129
:10184000016000218180C18001810C214181002142
:101850008181704710B502460020108A4FF2FF03C5
:1018600018400B884C8823438C882343CC8823431F
:101870001843108210BD0021018041808180C18009
:10188000704721B1828942F40052828104E082894A
:101890004DF6FF731A4082817047F0B5034600246D
:1018A000002600250020A1F510676A3F00D100BF87
:1018B0001846C1F3421401F01F06012707FA06F586
:1018C000012C01D10C3004E0022C01D1103000E0D9
:1018D00014301AB107682F43076002E00768AF436E
:1018E0000760F0BD1AB1838A0B43838202E0838ACA
:1018F0008B4383827047028A4FF6F0731A4002824C
:10190000028A0A430282704782894FF2FF731A40AB
:10191000828182890A438281704721B1828942F0A3
:101920000202828104E082894FF6FD731A408281AF
:101930007047028A4FF6DF731A400282028A0A4316
:101940000282704721B1028A42F48042028204E09E
:10195000028A4BF6FF731A4002827047C1F30802F5
:101960008280704701468888C0F3080070478189EB
:1019700041F0010181817047028BD2B20283028B58
:1019800042EA012202837047028B02F47F42028303
:10199000028B0A430283704721B1828A42F02002FF
:1019A000828204E0828A4FF6DF731A408282704797
:1019B00021B1828A42F01002828204E0828A4FF6CC
:1019C000EF731A408282704721B1828A42F0080286
:1019D000828204E0828A4FF6F7731A40828270474F
:1019E00021B1828942F40042828103E08289C2F3FC
:1019F0000E028281704721B1828A42F400628282A3
:101A000004E0828A4FF2FF731A4082827047828A12
:101A10004FF6FB731A408282828A0A4382827047A1
:101A200021B1828A42F00202828204E0828A4FF669
:101A3000FD731A408282704702460020B1F5007F94
:101A400000D100BF13880B4201D0012000E000202C
:101A5000704701F40072B2F5007F00D100BFCA43A5
:101A60000280704770B50246002400230025002044
:101A7000A1F510666A3E00D100BFC1F3421501F026
:101A80001F03012606FA03F3012D02D19689334084
:101A900006E0022D02D1168A334001E0968A3340D7
:101AA0000C12012606FA04F41688344013B10CB166
:101AB000012000E0002070BD10B500220023A1F538
:101AC00010646A3C00D100BF0A1201249440A3B202
:101AD000DC43048010BD0000003801400044004099
:101AE00000480040004C00400050004040EA010324
:101AF0009B0703D009E008C9121F08C0042AFAD2C4
:101B000003E011F8013B00F8013B521EF9D2704787
:101B1000421C10F8011B0029FBD1801A704710B538
:101B2000002200E0521C835C8C5CA34201D1002B9C
:101B3000F8D1D8B2E1B2401A10BD034611F8012B1A
:101B400000F8012B002AF9D1184670472DE9F05F03
:101B50000546002092469B4688460646814640241C
:101B60001BE0284641464746224600F042F85346CD
:101B70005A46C01A914110D311461846224600F029
:101B800029F82D1A67EB01084F4622460120002153
:101B900000F020F817EB00094E41201EA4F10104CB
:101BA000DFDC484631462A464346BDE8F09F000048
:101BB000064C074D06E0E06840F0010394E807009A
:101BC00098471034AC42F6D3FEF794FAB8200008D8
:101BD000D8200008202A04DB203A00FA02F1002075
:101BE00070479140C2F1200320FA03F3194390405B
:101BF0007047202A04DB203A21FA02F000217047C6
:101C000021FA02F3D040C2F1200291400843194664
:101C1000704700000FB4054B10B503A9044A0298A1
:101C200000F018F810BC5DF814FB00005D0300081C
:101C30004400002002E008C8121F08C1002AFAD19F
:101C400070477047002001E001C1121F002AFBD13C
:101C5000704700002DE9FF4F8DB00F460546002666
:101C6000DEE1252874D100246D1CF149A246A1466D
:101C700001222B78203B02FA03F0084202D00443F1
:101C80006D1CF6E728782A2810D06FF02F022878EC
:101C9000A0F13001092915D80AEB8A0102EB4101B4
:101CA00044F0020400EB010A6D1CF0E757F804ABA6
:101CB000BAF1000F03DA44F40054CAF1000A44F008
:101CC00002046D1C28782E2817D115F8010F44F056
:101CD00004042A280ED06FF02F022878A0F13001DA
:101CE00009290AD809EB890102EB410100EB01093E
:101CF0006D1CF2E757F8049B6D1C28786C280FD0F8
:101D000006DC4C2817D068280DD06A2814D104E0CE
:101D1000742810D07A280FD10DE044F400140AE0A2
:101D200044F4801401E044F440146978814202D103
:101D30006D1C04F580146D1C2A786E2A20D00DDCF1
:101D4000632A33D005DC002A6FD0582A12D1A2E0D2
:101D500011E0642A6AD0692A0CD167E0732A2FD077
:101D600004DC6F2A6FD0702A04D199E0752A6BD0F9
:101D7000782A6AD01046DDE90F129047761C4EE1B2
:101D8000C4F30250022806D003280AD0042801CF49
:101D90000AD0066043E101CF4FEAE671C0E9006175
:101DA0003DE101CF06803AE1067038E117F8040BF7
:101DB0008DF8000000208DF80100EB46012003E0C3
:101DC00057F804BB4FF0FF3061074FF0000102D419
:101DD0000DE008F10101884649450FDA8045F8DB3E
:101DE0001BF808100029F4D108E008F10101884629
:101DF0008142FADB1BF808100029F6D1DDE90F2338
:101E0000AAEB08008146214600F03BF9304400EB84
:101E1000080604E0DDE90F121BF8010B9047B8F14A
:101E20000108F7D221464846F4E0FDE00A21C4F358
:101E300002534FF0000B0891022B07D001CFC117BE
:101E4000032B09D00AE034E023E024E0FF1D27F053
:101E50000707F7E8020105E000B2C117042B01D122
:101E600040B2C117002907DA4FF0000CD0EB0C008C
:101E70006CEB01012D2302E0230504D52B238DF803
:101E80002430012303E0E30701D02023F7E798463D
:101E900050E00A210EE010204FF0000B08900CE0FB
:101EA00010214FF0000B44F004044FF00809089192
:101EB00003E008214FF0000B0891C4F30253022BFA
:101EC00004D001CF0021032B06D006E0FF1D27F030
:101ED0000707F7E8020103E080B2042B00D1C0B28B
:101EE0004FF00008230725D5702A2AD0DDF820C03E
:101EF0008CF0100C5CEA0B0C09D150EA010306D0FF
:101F000030238DF824308DF8252002239846DDF803
:101F100020C08CF0080C5CEA0B0C0BD150EA0103DA
:101F200001D1630706D530238DF824304FF0010826
:101F3000A9F10109582A09D03EA20B9208AA0A92D7
:101F400011E040238DF824300123DFE73EA2F4E7BF
:101F50005B46089AFFF7FAFD0B9B9B5C0A9AA2F17D
:101F600001020A92137050EA0102F1D10A98ADEB16
:101F7000000000F1200B600702D524F4803401E05A
:101F80004FF00109D94502DDA9EB0B0000E000206C
:101F900000EB0B0141440890AAEB010AE00306D4D0
:101FA000DDE90F232146504600F06BF8064400207F
:101FB00008E009A911F80900DDE90F129047761C25
:101FC00009F1010081464045F3DBE0030CD5DDE972
:101FD0000F232146504600F054F8064404E0DDE9A2
:101FE0000F1230209047761C0899481E089000294F
:101FF000F5DC08E00A980A990078491C0A91DDE9A5
:102000000F129047761CBBF10001ABF1010BF1DC24
:1020100021465046DDE90F2300F020F806446D1CF0
:10202000287800287FF41DAE11B03046BDE8F08F4F
:10203000092801003031323334353637383961629E
:102040006364656600000000303132333435363762
:102050003839414243444546000000002DE9F04133
:10206000044600251E461746880405D406E0394676
:102070002020B04705F10105641EF8D52846BDE8CB
:10208000F0812DE9F041044600251E469046C80324
:1020900001D5302700E02027880405D506E0414619
:1020A0003846B04705F10105641EF8D52846BDE85D
:1020B000F081FEF753B90000D8200008000000208E
:1020C00048000000341C00082021000848000020BF
:1020D00020040000441C0008000000000000000074
:1020E0000000000034431010010000000000000058
:1020F0000000000000A24A040000000000000000F0
:10210000010203040607080900000000010203049D
:102110000102030406070809020406080000000083
:04000005080000ED02
:00000001FF
