:020000040800F2
:10000000C00400205D0C000835020008370200081B
:100010003B0200083F020008430200080000000005
:10002000000000000000000000000000470200087F
:1000300049020008000000004B0200084D020008C1
:10004000770C0008770C0008770C0008770C000884
:10005000770C0008770C000887020008770C00086E
:10006000770C0008770C0008770C0008770C000864
:10007000770C0008770C0008770C0008770C000854
:10008000770C0008770C0008770C0008770C000844
:10009000770C0008770C0008770C0008AD02000808
:1000A000770C0008770C0008770C0008770C000824
:1000B000770C0008770C0008770C0008770C000814
:1000C000770C0008770C0008770C0008770C000804
:1000D000770C0008AF020008770C0008770C0008C6
:1000E000770C00084F020008770C0008DFF80CD0EE
:1000F00002F068F80048004759010008C0040020D9
:1001000010B501F01BFA012001F09DFA00BF21207B
:1001100001F057FA0028FAD0002001F0B4FA4FF4A9
:10012000806001F0B9FA002001F0BFFA0021084612
:1001300001F08CFA012001F095FA00BF392001F09E
:1001400040FA0028FAD0022001F08FFA00BF01F037
:1001500095FA0828FBD110BD00BFFFF7D1FF00F0D2
:1001600015F900F08DF900F0F3F900F0C7FA00F08E
:10017000AAFC00F0D7FC00F0FDFC00F028FD17A061
:1001800002F032F829E01F480078012805D11E4806
:1001900000F0BAF900201B4908701C4800780128BB
:1001A0000BD1002019490870194B6D2219491AA06A
:1001B00002F01AF8164800F0A7F91D480068012857
:1001C0000BD100F0DCFB4FF47A7000F02FFD00F053
:1001D000E8FB42F2107000F03FF9D4E70D0A2A2A3A
:1001E00057454C434F4D20544F20454E54455220C7
:1001F000494E544F2042555359424F582A2A2A2AD1
:100200000D0A0000000000209800002001000020DE
:10021000AC000020E423000844454255473A20251D
:100220007328294025643A2025730D0A0000000038
:1002300060000020704700BFFEE700BFFEE700BF80
:10024000FEE700BFFEE7704770477047704710B584
:10025000022001F0CDFBA8B1022001F0C9FB88B15A
:100260004FF4003000F04FFF012001F04EF910B1C3
:10027000012001F054F901F08FFB022001F0C8FBCE
:1002800001F08AFB10BD10B5012000F02BFF60B11A
:10029000012000F038FF20223449612000F051FB9A
:1002A00001203349087000F0F4FB10BD704710B511
:1002B00040F225512F4801F0FBFE002855D040F2B6
:1002C00025512C4801F01EFF2A4801F071FE2A49F1
:1002D0000870084600780A2809D00D2802D07F2827
:1002E00028D118E025490A2002F07AF800BF2349F6
:1002F0000D2002F075F82149232002F071F8002149
:100300001F48204A1268815401201F4908700020AC
:100310001C49086028E01B480068002809DD1749CF
:100320001548007802F05CF816480068401E154930
:10033000086019E011491048007802F051F80E48A1
:100340000178104802680068401C0E4B18600C4889
:10035000815418460068202805DB002019460860F3
:1003600001200949087000BF00BF10BDAC0000208B
:1003700001000020003801400C0000209400002003
:1003800098000020040000200000002000B587B085
:10039000012144F2050001F03BFA4FF40070ADF882
:1003A000180018208DF81B0003208DF81A0006A9EC
:1003B000274800F011FF4FF48060ADF81800482086
:1003C0008DF81B0006A9224800F006FF4FF4E1302B
:1003D00002900020ADF80C00ADF80E00ADF8100052
:1003E000ADF814000C20ADF8120002A9194801F074
:1003F000E2FC012240F22551164801F074FD012172
:10040000144801F064FD4FF4C06000F027FD252082
:100410008DF8040001208DF8050005208DF80600F8
:1004200001208DF8070001A800F01DFD07B000BDF8
:1004300070B504460D46E1B2064801F0B5FD00BFB7
:100440000448008810F0800FFAD0204670BD0000EC
:10045000000801400038014000EBC0014FF0E022ED
:1004600051610121116100BF4FF0E021096911F4D0
:10047000803FF9D000214FF0E02211617047000069
:1004800008B50121082001F0C3F90420ADF80000EF
:1004900010208DF8030002208DF8020069461748ED
:1004A00000F09AFE08BD10B594B004466946204697
:1004B00000F0B4F80199081911A101F056FE80B9B5
:1004C00004210E4800F033FF42F21070FFF7C4FF22
:1004D0004FF47A70FFF7C0FF0421084800F029FFAD
:1004E00009E00199081907A101F03FFE18B904219C
:1004F000024800F01EFF002014B010BD000C0140A7
:100500006F6E00006F66660030B585B005462878CE
:1005100018B94FF0FF3005B030BD6946284600F0ED
:10052000A7F800240DE0094800EB0411684601F02B
:100530001CFE28B9054800EB0410C168284688470E
:10054000641C052CEFD30020E5E70000100000201C
:1005500008B50121092001F05BF90121174800F0DD
:100560000AFF0820ADF8000010208DF803000320DA
:100570008DF802006946124800F02EFE08BD10B545
:1005800094B004466946204600F048F801990819DD
:100590000CA101F0EAFD20B90821094800F0C7FECE
:1005A00009E00199081908A101F0DFFD18B9082137
:1005B000034800F0BEFE002014B010BD0002300061
:1005C000000C01406F6E00006F66660030B5054696
:1005D0000C46285D10B94FF0FF3030BD285D202853
:1005E00001D12046F9E7601C044601462846FFF782
:1005F000EDFFF2E730B505460C46285D10B94FF027
:10060000FF3030BD285D202801D02046F9E7601C6E
:10061000044601462846FFF7EDFFF2E72DE9F047D3
:1006200005460E464FF00008C1460024002700BFD3
:1006300041462846FFF7DEFF041E08DB7F1C4846C4
:1006400009F1010946F8204004F1010800E00BE03F
:1006500041462846FFF7BAFF041E04DB0020285558
:1006600004F10108E4E700BF00BF3846BDE8F087A9
:100670002DE9F04106460C4600213046FFF7BAFF4F
:10068000074639463046FFF7A1FF0546681C0AD1E8
:10069000304601F063FD804642463146204601F077
:1006A0004BFDBDE8F081EA1B3146204601F044FDD8
:1006B0000020605500BFF4E710B50446002008494B
:1006C000086008A001F090FD002010BD10B50446A0
:1006D00001200349086006A001F086FD002010BD3E
:1006E000600000200D0A57616B657570210D0A00CE
:1006F0000D0A536C656570210D0A000008B50121D3
:10070000042001F085F80E20ADF8000010208DF8CF
:10071000030003208DF802006946054800F05CFDE7
:1007200008BD10B50E21024800F001FE10BD00000A
:100730000008014000B589B001210C2001F068F8E3
:10074000012141F2010001F063F82020ADF80C0016
:1007500003208DF80E0018208DF80F0003A9DD4846
:1007600000F03AFD04208DF80F004020ADF80C0099
:1007700003A9D84800F030FD18208DF80F00802024
:10078000ADF80C0003A9D34800F026FD1020ADF809
:100790000C008DF80F0003A9CE4800F01DFD0120CC
:1007A000ADF80C0010208DF80F0003A9CA4800F026
:1007B00013FD0120ADF80C0048208DF80F0003A9AF
:1007C000C44800F009FD0021084600F019FE012090
:1007D000019000208DF808000C208DF80900012000
:1007E0008DF80A0001A800F017FC4FF4C06000F07B
:1007F00035FB06208DF800008DF8020001208DF8F1
:1008000001008DF80300684600F02DFB0020ADF8D4
:1008100010004FF48270ADF812000020ADF8140003
:10082000ADF81600ADF818004FF40070ADF81A00DE
:100830000820ADF81C000020ADF81E000720ADF820
:10084000200004A9A54801F013F90121A34801F0F3
:10085000B4F909B000BD70B5044600BF02219F483D
:1008600001F02FFA0028F9D021469C4801F0D6F972
:1008700000BF0121994801F024FA0028F9D09748D7
:1008800001F0CEF9C5B2284670BD70B505460C46DC
:100890000121914800F04DFD10218E4800F049FDE6
:1008A0002846FFF7D8FF06462046FFF7D4FF102161
:1008B000884800F03CFD0121874800F038FD3046B3
:1008C00070BD70B504460121834800F032FD10214F
:1008D000804800F02EFD2046FFF7BDFFFF20FFF708
:1008E000BAFF054610217B4800F021FD01217A481E
:1008F00000F01DFD284670BD2DE9F04107460D466C
:1009000016460121744800F014FD1021714800F0D2
:1009100010FD3846FFF79FFF8046002404E0285D65
:10092000FFF799FF601CC4B2B442F8DB102169489C
:1009300000F0FDFC0121684800F0F9FC4046BDE8EC
:10094000F0812DE9F04107460D4616461021614819
:1009500000F0EFFC3846FFF77EFF8046002405E0FC
:10096000FF20FFF778FF2855601CC4B2B442F7DBC4
:100970001021584800F0DBFC4046BDE8F08110B57E
:100980000121554800F0D5FC0D212020FFF77DFF07
:100990000121514800F0CBFC42F21070FFF75CFDE2
:1009A00010BD10B501214C4800F0C3FC0F212020E0
:1009B000FFF76BFF0121484800F0B9FC42F21070CC
:1009C000FFF74AFD10BD10B5FFF7D9FF01214248DE
:1009D00000F0AFFC052242492A20FFF78DFF0121DC
:1009E0002120FFF752FF01212220FFF74EFF0021B7
:1009F0002520FFF74AFF20213120FFF746FF07217E
:100A00002620FFF742FF0F212020FFF73EFF0121A4
:100A1000314800F08CFC10BD70B50446002520461E
:100A200001F09CFB0546012809DA21462D4801F01A
:100A3000AAFB2A462B492CA001F0D6FB02E030A0ED
:100A400001F0D2FBFF212720FFF71FFFEAB2254963
:100A5000A020FFF751FF002070BD10B50446012112
:100A60001D4800F066FC10211A4800F062FC012CC1
:100A700003D1E120FFF7EFFE02E0E220FFF7EBFEFB
:100A80001021144800F053FC0121134800F04FFCE2
:100A900010BD10B50020FFF7E0FF0120FFF7DDFFDC
:100AA000FF212720FFF7F1FE10BD10B594B00446DA
:100AB00069462046FFF7B2FD01990819FFF7ACFF20
:100AC000002014B010BD10B5FFF734FEFFF77BFF18
:100AD00010BD000000080140000C01400030014042
:100AE000640000206A00002053656E643A25732874
:100AF0007374725F6C656E3D2564290D0A000000F9
:100B00004572726F723A20496E70757420737472F8
:100B1000696E6720697320746F6F206C6F6E672138
:100B20000A00000008B50121042000F071FE4FF416
:100B30008050ADF8000010208DF8030002208DF8E1
:100B400002006946094800F047FB08BD10B504469D
:100B5000012C04D10821064800F0E9FB04E01CB98F
:100B60000821034800F0E5FB10BD0000000801402B
:100B7000000C014010B501214FF0C05000F055FEAF
:100B8000012000F080FC00F0D7F9002000F0B0FD5B
:100B9000012000F0C3FD00BF612000F012FD00281D
:100BA000FAD04FF4007000F0BCFD012000F0BFFD52
:100BB00000F0FAFE4FF49B7000F0C8FE00F0ECFE6F
:100BC0000121022000F08CFE00F0E6FE10BD0EB503
:100BD0004FF4003000F097FA4FF4003001900020FD
:100BE0008DF8080008208DF8090001208DF80A0012
:100BF00001A800F011FA29208DF8000001208DF8DD
:100C0000010000208DF8020001208DF803006846E5
:100C100000F029F900F0C0FE0121022000F060FE82
:100C200000F0BAFE022000F0F3FE0EBD70B50446DF
:100C3000012000F0D5FE00BF012000F0C6FE002814
:100C4000FAD000F06DFE0519284600F08DFE00F088
:100C5000A3FE0121084600F028FC70BD064880472D
:100C600006480047FEE7FEE7FEE7FEE7FEE7FEE791
:100C7000FEE7FEE7FEE7FEE75D0D0008ED00000879
:100C80000CB50020019000906B48006840F4803063
:100C90006949086000BF6848006800F400300090AF
:100CA0000198401C0190009818B90198B0F5A06F08
:100CB000F1D16148006810F4003F02D0012000909B
:100CC00001E0002000900098012842D15B480068B4
:100CD00040F01000594908600846006820F0030001
:100CE00008600846006840F002000860524840680A
:100CF000514948600846406848600846406840F4EA
:100D0000806048600846406820F47C1048600846CF
:100D1000406840F4E81048600846006840F0807081
:100D2000086000BF4448006810F0007FFAD04248D5
:100D3000406820F00300404948600846406840F0A1
:100D40000200486000BF3C48406800F00C000828E2
:100D5000F9D10CBD10B5FFF793FF10BD10B53648A3
:100D6000006840F001003449086008464068344992
:100D700008403149486008460068324908402E4919
:100D800008600846006820F4802008600846406833
:100D900020F4FE0048604FF41F008860FFF7DAFF80
:100DA0004FF000602849086010BD10B500210020F8
:100DB0000022214B5B6803F00C0121B1042906D00D
:100DC000082928D107E0214B214C236027E01F4B45
:100DD0001F4C236023E0184B5B6803F47010164B24
:100DE0005B6803F48032022303EB904022B9194B75
:100DF0004343174C23600DE00F4B5B6813F4003F37
:100E000004D0144B4343124C236003E00F4B434385
:100E10000F4C236003E00D4B0D4C236000BF00BF5F
:100E2000054B5B68C3F303130B4CE15C084B1B6879
:100E3000CB40074C236010BD001002400020024050
:100E40000000FFF8FFFFF6FE08ED00E000127A0058
:100E50006C00002000093D00700000203149014372
:100E6000314A1160704770B5002100230F22C47809
:100E70000CB32D4C246804F4E064C4F5E064210A4A
:100E8000C1F10403CA40447804FA03F184781440A1
:100E900021430901254C0678A155047804F01F056B
:100EA0000124AC4005786D114FF0E02606EB850576
:100EB000C5F8004109E0047804F01F050124AC40A6
:100EC0001B4D0678761145F8264070BD194A0A4038
:100ED0000243154B1B1F1A60704739B1124A121D8D
:100EE00012680243104B1B1D1A6006E00E4A121DC9
:100EF000126882430C4B1B1D1A607047042808D1EE
:100F00004FF0E021096941F004014FF0E022116146
:100F100007E04FF0E021096921F004014FF0E022E1
:100F2000116170470000FA050CED00E000E400E0FC
:100F300080E100E080FFFF1F10B5012000F09CFC65
:100F4000002000F099FC10BD2A490860704729492B
:100F5000091F0860704727498431086070470146BF
:100F60000020254A10884FF67F4210400843224A4D
:100F700010807047014600201F4A10884FF680728B
:100F8000104008431C4A1080704708B500220092A8
:100F9000194A2C3A0092009A02440092009A116079
:100FA00008BD08B501460020009013482C38009079
:100FB0000098084400900098008808BD0D489C30B7
:100FC0000068C0B270470C480830008840F001004B
:100FD00009490831088070470648A0300068C0B24F
:100FE000704705480830008840F002000249083187
:100FF0000880704704860D422C6C00400020444954
:101000000860091D0860091D0860091D0860414845
:101010003F4914310860704700213D498279002A18
:101020003AD00A46126803689A430B461A600A1DB2
:10103000126803689A430B1D1A60027911440A680A
:1010400003681A430A60324A0832126803689A43F6
:101050002F4B08331A601A1D126803689A432C4BF1
:101060000C331A604279102A0ED11A1F12680368D5
:101070001A43274B08331A601A1D126803681A4373
:10108000234B0C331A600DE02149427911440A6860
:1010900003681A430A6005E0027911440A6803688C
:1010A0009A430A6070470021016001710C2141716F
:1010B0000021817170471649103109680143144AB3
:1010C00010321160704701460020114A1432126834
:1010D0000A4201D0012000E0002070470C49143181
:1010E00008607047014600200022094B1B6803EA94
:1010F0000102074B14331B680B4202D00AB10120D6
:1011000000E0002070470249143108607047000079
:1011100000040140FFFF0F0010B50446CA48844296
:1011200008D10121042000F08DFB0021042000F0F3
:1011300089FB46E0C548844208D10121082000F01F
:1011400081FB0021082000F07DFB3AE0C04884428A
:1011500008D10121102000F075FB0021102000F0C3
:1011600071FB2EE0BB48844208D10121202000F011
:1011700069FB0021202000F065FB22E0B648844294
:1011800008D10121402000F05DFB0021402000F04B
:1011900059FB16E0B148844208D10121802000F0BB
:1011A00051FB0021802000F04DFB0AE0AC48844256
:1011B00007D10121801500F045FB0021A01500F0AA
:1011C00041FB10BD10B50121084600F03BFB00219A
:1011D000012000F037FB10BD2DE9F041024600254B
:1011E0000026002000230024002791F803C00CF003
:1011F0000F0591F803C01CF0100F03D091F802C046
:101200004CEA050591F800C0BCF1000F31D014681C
:1012100000202BE04FF0010C0CFA00F3B1F800C0F5
:101220000CEA03069E4220D183004FF00F0C0CFA0B
:1012300003F7BC4305FA03FC4CEA040491F803C02D
:10124000BCF1280F06D14FF0010C0CFA00FCC2F8DB
:1012500014C00AE091F803C0BCF1480F05D14FF06B
:10126000010C0CFA00FCC2F810C0401C0828D1D3B5
:101270001460B1F800C0BCF1FF0F34DD54680020E9
:101280002EE000F1080C4FF0010808FA0CF3B1F859
:1012900000C00CEA03069E4221D183004FF00F0CE0
:1012A0000CFA03F7BC4305FA03FC4CEA040491F87A
:1012B00003C0BCF1280F05D100F1080C08FA0CF8A6
:1012C000C2F8148091F803C0BCF1480F07D100F1B7
:1012D000080C4FF0010808FA0CF8C2F81080401C06
:1012E0000828CED35460BDE8F0814FF6FF7101802D
:1012F000022181700421C17070470246002093686A
:101300000B4201D0012000E00020704701468868B0
:1013100080B2704702460020D3680B4201D0012002
:1013200000E0002070470146C86880B27047016144
:101330007047416170470AB1016100E04161704747
:10134000C16070474FF480320A43826181618261DB
:1013500082698269704702460020424B18684FF646
:101360008073184040EA021008433E4B18607047F3
:101370003D49C8617047F0B50A46002300240021AA
:10138000002500F00046B6F1004F02D1354EF1695C
:1013900001E0344E7168C0F3034583B200F4401697
:1013A000B6F5401F08D121F070612E4E766826F008
:1013B00070662C4F7E6012E000F48016B6F5801F38
:1013C00006D1032606FA05F4A14341F0706106E058
:1013D000460D360103FA06F6B14341F0706122B1C1
:1013E000460D360103FA06F6314300F00046B6F129
:1013F000004F02D11B4EF16101E01A4E7160F0BD49
:1014000030B500228B071C0F0F2303FA04F2154B93
:1014100008338C1053F824309343124C08348D1049
:1014200044F8253023468C1053F824308C07240FC1
:1014300000FA04F423430B4C08348D1044F8253093
:1014400030BD0A490860704700080140000C0140A7
:10145000001001400014014000180140001C014030
:10146000002001400000014000002042DC0020423A
:1014700010B50121080700F0F2F900214FF080506B
:1014800000F0EDF910BD294908627047274908614D
:10149000704701460020264A106820F0E00008430B
:1014A0001060704723490860704710B5024600205D
:1014B0001F4B186820F00300104318601E4B1B6878
:1014C00043F004031C4C2360012901D130BF00E02C
:1014D00020BF194B1B6823F00403174C236010BD79
:1014E0001348006840F0040011490860084600688D
:1014F00040F0020008601048006840F004000E4907
:10150000086000BF00BF30BF704701460020084A96
:1015100052680A4201D0012000E0002070470449CF
:10152000096841EA8001024A1160704700000E42DA
:1015300000700040A0000E4210ED00E0DD480068A1
:1015400040F00100DB49086008464068DA4908407D
:10155000D849486008460068D8490840D54908601D
:101560000846006820F4802008600846406820F49F
:10157000FE0048604FF41F0088607047CD4909683D
:1015800021F48031CB4A11601146096821F4802191
:101590001160B0F5803F03D0B0F5802F0ED106E08A
:1015A000C449096841F48031C24A116007E0C14969
:1015B000096841F4A021BF4A116000E000BF00BFEC
:1015C000704710B501460022002300204A11012A6D
:1015D00002D1B84C236806E0022A02D1B54C236A36
:1015E00001E0B44C636A01F01F02012494401C42E4
:1015F00001D0012000E0002010BD38B5002000908F
:101600000024002500BF3120FFF7DBFF05460098CE
:10161000401C00900098B0F5A06F01D0002DF2D0D2
:101620003120FFF7CEFF08B1012400E0002420465E
:1016300038BD014600209F4A106820F0F80040EABB
:10164000C100106070479E49086070470246002044
:10165000984B586820F47C1042EA01031843954BDC
:101660005860704796490866704701460020914AC5
:10167000506820F003000843506070478D48406870
:1016800000F00C007047014600208A4A506820F0A4
:10169000F00008435060704701460020854A5068BA
:1016A00020F4E06008435060704701460020814A02
:1016B000506820F4605040EAC1005060704729B182
:1016C0007C4A527A02437B4B5A7204E0794A527A3E
:1016D0008243784B5A7270477A49086070470146D6
:1016E0000020744A506820F440400843506070471E
:1016F0000021754A11706F4A82F82010012802D02B
:10170000042808D103E001216F4A117004E005218B
:101710006D4A117000E000BF00BF70476B49086060
:1017200070476449096A0143624A11627047674918
:1017300044390860704730B500210022002400239E
:101740005C4D6D6805F00C0121B1042905D0082914
:1017500023D105E05E4D056022E05D4D05601FE090
:10176000544D6D6805F47012524D6D6805F4803467
:10177000022505EB92421CB9564D554305600BE01E
:101780004C4D6D6815F4003F03D0524D5543056034
:1017900002E04F4D5543056002E04D4D056000BF2E
:1017A00000BF444D6D6805F0F00109094A4D6B5CBE
:1017B0000568DD4045603F4D6D6805F4E061090A4C
:1017C000454D6B5C4568DD4085603A4D6D6805F4BC
:1017D0006051C90A404D6B5C4568DD40C560354DC0
:1017E0006D6805F44041890B3C4D6B5CC568B5FBE9
:1017F000F3F5056130BD29B12E4A526902432D4BE4
:101800005A6104E02B4A526982432A4B5A6170475D
:1018100029B1284A92690243264B9A6104E0254A7D
:1018200092698243234B9A61704729B1214AD26958
:101830000243204BDA6104E01E4AD26982431D4B09
:10184000DA61704729B11B4AD2680243194BDA604A
:1018500004E0184AD2688243164BDA60704729B117
:10186000144A12690243134B1A6104E0114A1269C7
:101870008243104B1A617047144940390860704721
:101880000F49C86470470B49C87170470948406ADE
:1018900040F0807007494862704701460020054AC1
:1018A00092680A4201D0012000E0002070470149FF
:1018B00088727047001002400000FFF8FFFFF6FE3C
:1018C00000004242D80042422010024080044242BE
:1018D00000127A0000093D008000002090000020E6
:1018E00029B14F4A128802434D4B1A8004E04C4AFA
:1018F000128882434A4B1A8070474948001D00886D
:1019000040F010004649091D088070474448001DFA
:1019100000884FF6EF7108404149091D0880704763
:1019200000213F481C300188001F008841EA004028
:10193000704700B50246FFF7E0FF100C3849183138
:101940000880091D0A80FFF7E1FF00BD00B50246CF
:10195000FFF7D3FFC2F30340314908310880091D66
:101960000A80FFF7D3FF00BD00B50246FFF7C5FFB1
:10197000100C2B4920310880091D0A80FFF7C6FF93
:1019800000BD00202649103109880907080B2449A9
:10199000143109880843704700BF2148001D0088A2
:1019A00010F0200FF9D070471D48001D00884FF639
:1019B000F77108401A49091D088000BF1848001D2A
:1019C000008810F0080FF9D0704701460020144A33
:1019D000121D12880A4201D0012000E00020704749
:1019E0000F49091D098881430D4A121D1180704756
:1019F000014600200A4A121D12880A40D0B2084A45
:101A000012880A4202D008B1012000E0002070478D
:101A10000349091D09888143014A121D118070473D
:101A20000028004010B50446BE48844208D1012178
:101A30008014FFF707FF0021A014FFF703FF16E053
:101A4000B948844208D101210014FFF708FF0021A2
:101A50002014FFF704FF0AE0B448844207D10121B3
:101A6000C013FFF7FCFE0021E013FFF7F8FE10BDE6
:101A700010B50022028802F441520B884C8823439F
:101A80008C882343CC8823430C8923434C892343EC
:101A90008C892343CC8923431A430280838B4FF2E2
:101AA000FF74234083830B8A038210BD2DE9F04F1E
:101AB00085B005460C464FF0000902274FF000089C
:101AC0004FF0010B0026B246A88B4FF240010840B0
:101AD000A88302202884B5F81C90A068022801D1B0
:101AE00000BF38E0A08810B94FF0010B01E04FF0C3
:101AF000020B8D48854200D100E000BF6846FFF729
:101B00001AFEDDF800A0E088B0F5007F0AD14FEAA8
:101B10001A2000EB80004000A168B0FBF1F0401DEE
:101B200086B20BE04FEA4B10BAFBF0F000EB8000FE
:101B30004000A168B0FBF1F0401D86B20A20B6FB60
:101B4000F0F606F00108A6EB0800C0F34F074FF6C9
:101B5000FF7000EA0828022F01DBFF2F02DD0227B9
:101B60004FF00008E08840EA080038432884A08845
:101B7000A1890843618808432188084340F4006034
:101B800040EA0909A5F81C9005B0BDE8F08F0021D6
:101B9000018041808180C180018141818181C18139
:101BA0000721018270470021018041808180C1802E
:101BB0000221816000218181704721B1028842F0B9
:101BC0004002028004E002884FF6BF731A40028090
:101BD000704721B1828B42F48062828304E0828B61
:101BE0004FF6FF331A408283704730B5002400233C
:101BF0000C110125A540ABB21AB185881D43858023
:101C000002E085889D43858030BD1AB183880B43EF
:101C1000838002E083888B43838070478181704793
:101C2000014688897047A1F57E42FF3A04D00288B8
:101C300042F48072028004E002884FF6FF631A408B
:101C40000280704721B1828842F00402828004E061
:101C500082884FF6FB731A408280704702884FF2E9
:101C6000FF731A40028002880A430280704701888D
:101C700041F480510180704721B1028842F4005242
:101C8000028004E002884DF6FF731A40028070471C
:101C900002460020012901D0108B00E0908A704795
:101CA0000146088A7047B1F5804F04D1028842F49A
:101CB0008042028004E002884BF6FF731A400280E3
:101CC00070470246002013890B4201D0012000E03A
:101CD00000207047CA4302817047F0B502460020D9
:101CE00000240023002501F00F070126BE40B4B2F6
:101CF0000B1101269E40B3B2968806EA03051689A9
:101D0000264202D00DB1012000E00020F0BD10B548
:101D1000002201F00F040123A3409AB2D3430381B0
:101D200010BD00000030014000380040003C004081
:101D300010B50446FB48844209D101218803FFF70E
:101D400081FD00214FF48040FFF77CFD32E0F64832
:101D5000844209D101214804FFF781FD00214FF49D
:101D60000030FFF77CFD25E0F048844209D10121D5
:101D70008804FFF774FD00214FF48020FFF76FFD0A
:101D800018E0EB48844209D10121C804FFF767FD40
:101D900000214FF40020FFF762FD0BE0E54884428C
:101DA00008D101210805FFF75AFD00214FF48010EA
:101DB000FFF755FD10BD2DE9F04786B005460E46EC
:101DC0000024A24600BFA1460027B08900B100BF91
:101DD0002F462C8A4CF6FF700440F08804432C8276
:101DE000AC894EF6F3100440B088318908437189FC
:101DF00008430443AC81AC8A4FF6FF400440B089ED
:101E00000443AC8201A8FFF796FCC648874202D182
:101E1000DDF810A001E0DDF80CA0A88910F4004F57
:101E200008D00AEBCA0000EB0A1031684900B0FB89
:101E3000F1F807E00AEBCA0000EB0A1031688900EC
:101E4000B0FBF1F86420B8FBF0F004012009642134
:101E500001FB1089A88910F4004F08D0322000EB54
:101E6000C900B0FBF1F000F00700044308E03220A5
:101E700000EB09106421B0FBF1F000F00F00044307
:101E80002C8106B0BDE8F0874FF4165101600021A7
:101E90008180C18001810C214181002181817047B5
:101EA00010B502460020108A4FF2FF0318400B883D
:101EB0004C8823438C882343CC88234318431082C7
:101EC00010BD0021018041808180C180704721B117
:101ED000828942F40052828104E082894DF6FF73C8
:101EE0001A4082817047F0B5034600240026002581
:101EF0000020A1F510676A3F00D100BF1846C1F36A
:101F0000421401F01F06012707FA06F5012C01D142
:101F10000C3004E0022C01D1103000E014301AB172
:101F200007682F43076002E00768AF430760F0BD12
:101F30001AB1838A0B43838202E0838A8B438382B4
:101F40007047028A4FF6F0731A400282028A0A43EF
:101F50000282704782894FF2FF731A408281828920
:101F60000A438281704721B1828942F00202828154
:101F700004E082894FF6FD731A4082817047028A1D
:101F80004FF6DF731A400282028A0A4302827047C8
:101F900021B1028A42F48042028204E0028A4BF6B6
:101FA000FF731A4002827047C1F3080282807047B3
:101FB00001468888C0F308007047818941F001011B
:101FC00081817047028BD2B20283028B42EA0122E6
:101FD00002837047028B02F47F420283028B0A4322
:101FE0000283704721B1828A42F02002828204E09B
:101FF000828A4FF6DF731A408282704721B1828A4B
:1020000042F01002828204E0828A4FF6EF731A4097
:102010008282704721B1828A42F00802828204E003
:10202000828A4FF6F7731A408282704721B1828903
:1020300042F40042828103E08289C2F30E0282816F
:10204000704721B1828A42F40062828204E0828A6F
:102050004FF2FF731A4082827047828A4FF6FB73F9
:102060001A408282828A0A438282704721B1828A20
:1020700042F00202828204E0828A4FF6FD731A4027
:102080008282704702460020B1F5007F00D100BF78
:1020900013880B4201D0012000E00020704701F4BA
:1020A0000072B2F5007F00D100BFCA4302807047C2
:1020B00070B502460024002300250020A1F510661B
:1020C0006A3E00D100BFC1F3421501F01F03012693
:1020D00006FA03F3012D02D19689334006E0022D62
:1020E00002D1168A334001E0968A33400C12012651
:1020F00006FA04F41688344013B10CB1012000E054
:10210000002070BD10B500220023A1F510646A3CC8
:1021100000D100BF0A1201249440A3B2DC43048022
:1021200010BD00000038014000440040004800405D
:10213000004C00400050004040EA01039B0703D0E0
:1021400009E008C9121F08C0042AFAD203E011F8F6
:10215000013B00F8013B521EF9D27047421C10F8B7
:10216000011B0029FBD1801A704710B5002200E046
:10217000521C835C8C5CA34201D1002BF8D1D8B2F5
:10218000E1B2401A10BD034611F8012B00F8012BF3
:10219000002AF9D11846704730B50B460146002099
:1021A0002022012409E021FA02F59D4205D303FA19
:1021B00002F5491B04FA02F52844151EA2F101029A
:1021C000F1DC30BD064C074D06E0E06840F001034D
:1021D00094E8070098471034AC42F6D3FDF78AFF25
:1021E000EC2300080C2400080FB4054B10B503A91C
:1021F000044A029800F018F810BC5DF814FB0000C7
:10220000310400089400002002E008C8121F08C131
:10221000002AFAD170477047002001E001C1121F67
:10222000002AFBD1704700002DE9FF4F8BB09A4682
:102230000F4605460026C9E0252837D100246D1C2D
:102240006649A04601222B78203B02FA03F008429F
:1022500002D004436D1CF6E728782E2817D115F814
:10226000010F44F004042A280ED06FF02F022878C2
:10227000A0F1300109290AD808EB880102EB4101DD
:1022800000EB01086D1CF2E757F8048B6D1C2878F1
:1022900069283FD006DC002871D063280CD0642860
:1022A00004D137E0732811D075284ED052460D99CD
:1022B000904706F1010688E017F8040B8DF800003E
:1022C00000208DF80100E946012003E057F8049B47
:1022D0004FF0FF3061074FF0000401D40AE0641CA6
:1022E00044450DDA8442FADB19F804100029F6D1CE
:1022F00006E0641C8442FCDB19F804100029F8D1C4
:10230000264404E019F8010B52460D999047641ECB
:10231000F8D25AE001CF4FF00A0B002804DAC0F1DE
:1023200000004FF02D0102E0210504D52B218DF88E
:102330002410012103E0E10705D02021F7E70DF18A
:10234000200908910CE00021F9E701CF4FF00A0BBA
:10235000F9E75946FFF720FF01F1300209F8012D96
:102360000028F6D1ADEB090000F1200B600701D485
:102370004FF00108D84503DDA8EB0B0001E029E090
:1023800000208046002406E009A85246005D0D9911
:102390009047761C641C08988442F5DB04E03020EA
:1023A00052460D999047761CB8F10001A8F101083A
:1023B000F5DC05E019F8010B52460D999047761CA3
:1023C000BBF10001ABF1010BF4DC6D1C2878002897
:1023D0007FF432AF0FB03046BDE8F08F092801001E
:1023E000FEF726B86D61696E000000000C2400083D
:1023F000000000209800000008220008A424000823
:1024000098000020280400001822000800000000A6
:102410000000000000000000000000006C6F636B13
:1024200000000000000000007F050008617564697D
:102430006F00000000000000A70400086E72660034
:102440000000000000000000AB0A000877616B6527
:102450007570000000000000B9060008736C656527
:102460007000000000000000CD0600080100000020
:10247000344310100100000000A24A0400000000D4
:102480000000000001020304060708090000000024
:1024900001020304010203040607080902040608F6
:0424A0000000000038
:04000005080000ED02
:00000001FF
